:0200000097283F
:1000060083120313A201A30180302306F00080307F
:100016007002031D102832302202031833280614FA
:100026000930FB001E30FC00E430FD00FD0B1928F2
:10003600FC0B1928FB0B192800000610C330FB0027
:10004600CE30FC009D30FD00FD0B2728FC0B272839
:10005600FB0B272800000000A20A0319A30A0728A1
:02006600080090
:1000680083120313A201A30180302306F00080301D
:100078007002031D41283230220203186428061436
:100088001730FB005330FC003730FD00FD0B4A28C9
:10009800FC0B4A28FB0B4A2800000000061012300F
:1000A800FB00C230FC006630FD00FD0B5928FC0B3C
:1000B8005928FB0B59280000A20A0319A30A38285B
:0200C80008002E
:1000CA0083120313A201A30180302306F0008030BB
:1000DA007002031D72283230220203189628061471
:1000EA001030FB003930FC000D30FD00FD0B7B2881
:1000FA00FC0B7B28FB0B7B28000000000610BC30A1
:10010A00FB00B430FC007330FD00FD0B8A28FC0BA9
:10011A008A28FB0B8A2800000000A20A0319A30AF6
:04012A006928080038
:10012E008316031386018312860103201530FB000C
:10013E004B30FC00BE30FD00FD0BA328FC0BA328AA
:10014E00FB0BA328000065201530FB004B30FC0094
:10015E00BE30FD00FD0BB128FC0BB128FB0BB12806
:10016E00000034201530FB004B30FC00BE30FD008B
:10017E00FD0BBF28FC0BBF28FB0BBF2800009C28E3
:02018E00C72880
:02400E004A2F37
:00000001FF
